:020000040800F2
:100000000028002069030008B9030008B9030008AC
:10001000B9030008B9030008B90300080000000094
:10002000000000000000000000000000B90300080C
:10003000B903000800000000B9030008B903000874
:10004000B9030008B9030008B9030008B9030008A0
:10005000B9030008B9030008B9030008B903000890
:10006000B9030008B9030008B9030008B903000880
:10007000B9030008B9030008B9030008B903000870
:10008000B9030008B9030008B9030008B903000860
:10009000B9030008B9030008B9030008B903000850
:1000A000B9030008B9030008B9030008B903000840
:1000B000B9030008B9030008B9030008B903000830
:1000C000B9030008B9030008B9030008B903000820
:1000D000B9030008B9030008B9030008B903000810
:1000E000B9030008B903000800000000B9030008C4
:1000F000B9030008B9030008B9030008B9030008F0
:10010000B9030008B9030008B9030008B9030008DF
:10011000B9030008B9030008B9030008B9030008CF
:10012000B9030008B9030008B9030008B9030008BF
:1001300010B5054C237833B9044B13B10448AFF321
:1001400000800123237010BD20000020000000006B
:10015000B00C000808B5034B1BB103490348AFF3CB
:10016000008008BD0000000024000020B00C000842
:1001700080B400AF074B9B69064A43F004039361C8
:10018000044B9B69034A43F00803936100BFBD46DB
:1001900080BC70470010024080B582B000AF4FF4C1
:1001A0000073BB800423BB710123FB713B1D194607
:1001B000274800F098FC4FF48063BB800423BB7198
:1001C0000123FB713B1D1946214800F08CFC4FF4C4
:1001D0000063BB800423BB710123FB713B1D1946E7
:1001E0001B4800F080FC4FF48053BB800423BB719C
:1001F0000123FB713B1D1946154800F074FC4FF4B8
:100200000053BB800423BB710123FB713B1D1946C6
:100210000F4800F068FC4FF48043BB800423BB719F
:100220000123FB713B1D1946094800F05CFC4FF4AB
:100230000043BB800423BB710123FB713B1D1946A6
:10024000034800F050FC00BF0837BD4680BD00BF2A
:10025000000C014080B485B000AF78600023FB60E3
:100260000BE00023BB6002E0BB680133BB60BB68EE
:10027000FE2BF9D9FB680133FB60FA687B689A4270
:10028000EFD300BF1437BD4680BC704780B588B03F
:1002900000AFFFF76DFF00F0CBFA2E4800F094FBA3
:1002A0001E20FFF7D7FF00F081FAFFF775FF2A4AFB
:1002B00007F1100307CA03C31A800233120C1A7025
:1002C000264A3B1D07CA03C31A800233120C1A7058
:1002D0000023FB771BE0FB7F07F12002134413F898
:1002E000103C184600F04EFBFB7F07F12002134440
:1002F00013F81C3C9BB25B029BB21946184800F0F5
:10030000A4FC6420FFF7A6FFFB7F0133FB77FB7F94
:100310000A2BE0D900F04AFA00F050F8114800F03A
:1003200053FB1E20FFF796FF00F040FA00F0ACF8F8
:100330000346BB77BB7F3F2B02D0412B08D002E0A6
:1003400000F034FA05E0BB7F184600F01BFB00E02C
:1003500000BFEBE7C80C0008DC0C0008E80C000844
:10036000000C0140CC0C00080D488546AFF300801E
:100370000C480D490D4A002302E0D458C450043300
:10038000C4188C42F9D30A4A0A4C002301E01360D6
:100390000432A242FBD300F067FCFFF777FFFEE7D1
:1003A000002800200000002020000020FC0C000895
:1003B0002000002040000020FEE7000080B582B051
:1003C00000AF0123BB800423BB710123FB713B1DE4
:1003D00019462C4800F087FB0223BB800423BB7125
:1003E0000123FB713B1D1946264800F07CFB0823C6
:1003F000BB800423BB710123FB713B1D19462148BF
:1004000000F071FB1023BB800423BB710123FB713F
:100410003B1D19461B4800F066FB2023BB800423CC
:10042000BB710123FB713B1D1946164800F05BFBB5
:100430004023BB800423BB710123FB713B1D194684
:10044000104800F050FB8023BB800423BB710123C4
:10045000FB713B1D19460B4800F045FB4FF48073C0
:10046000BB800423BB710123FB713B1D194605486A
:1004700000F039FBFF21034800F0E7FB00BF08371D
:10048000BD4680BD000C014080B582B000AF0023A6
:100490007B60B4E05E4B1B689BB2012219465D484D
:1004A00000F0BCFB5A4B5B689BB2012219465948CD
:1004B00000F0B4FB564B9B689BB20122194655488D
:1004C00000F0ACFB524BDB689BB20122194651484D
:1004D00000F0A4FB4E4A7B6852F823309BB2002206
:1004E00019464C4800F09AFB00233B6080E04A4AE2
:1004F0003B6852F823309BB21946464800F077FB20
:100500000346002B71D100BF434A3B6852F82330A9
:100510009BB219463F4800F06AFB0346002BF3D01C
:100520007B68032B61D801A252F823F03D05000837
:10053000650500088D050008B50500083B68002B1F
:1005400001D1372360E03B68012B01D134235BE00C
:100550003B68022B01D1312356E03B68032B3DD190
:100560003F2351E03B68002B01D138234CE03B682E
:10057000012B01D1352347E03B68022B01D1322307
:1005800042E03B68032B2BD130233DE03B68002B3E
:1005900001D1392338E03B68012B01D1362333E008
:1005A0003B68022B01D133232EE03B68032B19D18A
:1005B0003D2329E03B68002B01D12F2324E03B6839
:1005C000012B01D12A231FE03B68022B01D12D23EF
:1005D0001AE03B68032B07D12B2315E000BF04E092
:1005E00000BF02E000BF00E000BF3B6801333B609A
:1005F0003B68032B7FF77BAF7B6801337B607B68B5
:10060000032B7FF747AF412318460837BD4680BD0F
:1006100010000020000C01400000002080B485B0D4
:1006200000AF78600023FB600BE00023BB6002E0BA
:10063000BB680133BB60BB68FE2BF9D9FB68013393
:10064000FB60FA687B689A42EFD300BF1437BD465F
:1006500080BC704780B500AF524B4FF480721A8057
:10066000504B04229A704F4B0122DA704D494E488C
:1006700000F039FA4B4B4FF400721A80494B0422B8
:100680009A70484B0122DA704649474800F02BFA2D
:10069000444B4FF480621A80424B04229A70414BC3
:1006A0000122DA703F49404800F01DFA3D4B01221B
:1006B0001A803C4B04229A703A4B0122DA70394975
:1006C000394800F010FA374B02221A80354B0422C9
:1006D0009A70344B0122DA703249334800F003FA41
:1006E000304B04221A802F4B04229A702D4B01228A
:1006F000DA702C492C4800F0F6F92A4B08221A80AF
:10070000284B04229A70274B0122DA70254926488B
:1007100000F0E9F9234B10221A80224B04229A7030
:10072000204B0122DA701F491F4800F0DCF91D4BF5
:1007300020221A801B4B04229A701A4B0122DA7075
:100740001849194800F0CFF9164B40221A80154B72
:1007500004229A70134B0122DA701249124800F0F9
:10076000C2F9104B80221A800E4B04229A700D4B56
:100770000122DA700B490C4800F0B5F900224FF461
:100780008061094800F04AFA00224FF4807106485F
:1007900000F044FA00224FF40071034800F03EFAE2
:1007A00000BF80BD3C0000200008014080B500AFC4
:1007B000012000F0C3F800BF80BD000080B500AF8D
:1007C00001224FF48061074800F028FA3220FFF739
:1007D00025FF00224FF48061024800F01FFA00BF9D
:1007E00080BD00BF0008014080B582B000AF034665
:1007F0000A46FB711346BB71FB79012B08D1BB790B
:100800000F2B05D8BB79803BDBB2184600F096F879
:10081000FB79022B08D1BB790F2B05D8BB79403B64
:10082000DBB2184600F08AF800BF0837BD4680BD2D
:1008300080B500AF1420FFF7F1FEFFF70BFF0F208C
:10084000FFF7ECFEFFF7B2FF382000F077F8062044
:1008500000F074F8802000F071F80F2000F06EF8BE
:1008600000BF80BD80B500AF324B01221A80314BF2
:1008700001229A702F49304800F035F92D4B0222A1
:100880001A802C4B01229A702A492B4800F02BF930
:10089000284B04221A80274B01229A7025492648AA
:1008A00000F021F9234B08221A80224B01229A7072
:1008B0002049214800F017F91E4B10221A801D4BC9
:1008C00001229A701B491C4800F00DF9194B202297
:1008D0001A80184B01229A701649174800F003F944
:1008E000144B40221A80134B01229A70114912486E
:1008F00000F0F9F80F4B80221A800E4B01229A70FB
:100900000C490D4800F0EFF801224FF400710A483D
:1009100000F084F900224FF48071074800F07EF95E
:10092000FFF74CFF00224FF40071034800F076F906
:1009300000BF80BD3C0000200008014080B582B0AF
:1009400000AF0346FB71FFF78DFFFB799BB21946A1
:100950000B4800F07AF900224FF40071084800F0CB
:100960005DF900224FF48071054800F057F901202D
:10097000FFF754FEFFF722FF00BF0837BD4680BDDA
:100980000008014080B582B000AF0346FB71FB79DF
:100990009BB219460B4800F058F900224FF4007141
:1009A000084800F03BF901224FF48071054800F03F
:1009B00035F90120FFF732FEFFF700FF00BF0837CF
:1009C000BD4680BD0008014080B584B000AF7860AE
:1009D0000023FB601CE0FB680133FB607B685A1C52
:1009E0007A601B781846FFF7CDFFFB68102B04D107
:1009F00000210220FFF7F8FE0AE0FB68202B07D158
:100A0000FFF7D4FE00210120FFF7EEFE0023FB607C
:100A10007B681B78002BDED100BF1037BD4680BD40
:100A200080B483B000AF0346FB80FB88802B42D0AC
:100A3000802B11DC082B36D0082B06DC022B2ED0A5
:100A4000042B2ED0012B28D047E0202B2FD0402B79
:100A50002FD0102B29D040E0B3F5006F33D0B3F581
:100A6000006F09DCB3F5007F29D0B3F5806F28D083
:100A7000B3F5807F21D030E0B3F5005F27D0B3F528
:100A8000005F03DCB3F5805F1FD026E0B3F5804F35
:100A90001FD0B3F5004F1ED01FE000231EE004233B
:100AA0001CE008231AE00C2318E0102316E014239E
:100AB00014E0182312E01C2310E000230EE00423AE
:100AC0000CE008230AE00C2308E0102306E01423BE
:100AD00004E0182302E01C2300E0002318460C3732
:100AE000BD4680BC704790B585B000AF7860396076
:100AF0000023BB600023FB733B681B88FF2B01D8DE
:100B00007B6801E07B680433BB603B681B88184648
:100B1000FFF786FF03461A460F239340DA43BB686C
:100B20001B681A40BB681A603B689B78072B0BD088
:100B30003B689B78062B07D03B689B78052B03D03E
:100B40003B689B78042B0ED13B689B78043B9B0051
:100B50005AB23B68DB785BB213435BB2DBB203F0A3
:100B60000F03FB7331E03B689B78012B03D03B689C
:100B70009B78002B07D13B689B789B00DBB203F08E
:100B80000F03FB7321E03B689B78082B07D13B6880
:100B90009B789B00DBB203F00F03FB7315E0082387
:100BA000FB733B689B78022B07D17B68DB683A6854
:100BB00012881A437B68DA6007E07B68DB683A6872
:100BC0001288D2431A407B68DA60FC7B3B681B8842
:100BD0001846FFF725FF034604FA03F2BB681B68BB
:100BE0001A43BB681A6000BF1437BD4690BD80B47D
:100BF00085B000AF78600B467B807B689A687B8805
:100C00001340002B02D00123FB7301E00023FB7390
:100C1000FB7B18461437BD4680BC704780B483B058
:100C200000AF78600B467B8013467B707B78002B8F
:100C300003D07A887B681A6102E07A887B685A61FF
:100C400000BF0C37BD4680BC704780B483B000AF96
:100C500078600B467B807A887B68DA6000BF0C374F
:100C6000BD4680BC7047000070B500250C4E0D4C91
:100C7000A41BA410A54209D100F01AF800250A4EC1
:100C80000A4CA41BA410A54205D170BD56F825300E
:100C900098470135EEE756F8253098470135F2E7D9
:100CA000F40C0008F40C0008F40C0008F80C000820
:100CB000F8B500BFF8BC08BC9E467047F8B500BF49
:080CC000F8BC08BC9E46704719
:100CC800484559004B6579706164206973207265E5
:100CD8006164790030313233343536373839300091
:0C0CE800017924304C12021900100100A8
:040CF400550100089E
:040CF80031010008BE
:100CFC0001000000020000000800000010000000CD
:100D0C0020000000400000008000000000010000F6
:040000050800036983
:00000001FF
