S02B0000746F67676C652033204C6564206F6E2073657175656E7469616C20776179207468656E2062757A7A47
S11300000C942A000C9434000C9434000C943400A6
S11300100C9434000C9434000C9434000C9434008C
S11300200C9434000C9434000C9434000C9434007C
S11300300C9434000C9434000C9434000C9434006C
S11300400C9434000C9434000C9434000C9434005C
S11300500C94340011241FBECFE5D8E0DEBFCDBF21
S11300600E9436000C9482000C94000081B38061DD
S113007081BB81B3806281BB81B3806481BB81B366
S1130080806881BB92B380E2982792BB2FEF34E360
S11300909CE0215030409040E1F700C0000092B352
S11300A0892782BB92B380E4982792BB2FEF34E375
S11300B09CE0215030409040E1F700C0000092B332
S11300C0892782BB82B3805882BB2FEF34E38CE054
S11300D0215030408040E1F700C0000082B38058D6
S11300E082BB92B380E1982792BB9FEF24E33CE06C
S11300F0915020403040E1F700C0000092B38927BE
S10B010082BBC0CFF894FFCFCD
S9030000FC
